{
    "_format": "hh-sol-artifact-1",
    "contractName": "Phones",
    "sourceName": "contracts/Phones.sol",
    "abi": [
        {
            "inputs": [
                {
                    "internalType": "string",
                    "name": "_model_name",
                    "type": "string"
                },
                {
                    "internalType": "string",
                    "name": "_brand_name",
                    "type": "string"
                },
                {
                    "internalType": "uint256",
                    "name": "_price",
                    "type": "uint256"
                }
            ],
            "name": "createPhone",
            "outputs": [],
            "stateMutability": "nonpayable",
            "type": "function"
        },
        {
            "inputs": [
                {
                    "internalType": "uint256",
                    "name": "_id",
                    "type": "uint256"
                }
            ],
            "name": "deletePhone",
            "outputs": [],
            "stateMutability": "nonpayable",
            "type": "function"
        },
        {
            "inputs": [
                {
                    "internalType": "uint256",
                    "name": "_id",
                    "type": "uint256"
                }
            ],
            "name": "getPhone",
            "outputs": [
                {
                    "internalType": "uint256",
                    "name": "",
                    "type": "uint256"
                },
                {
                    "internalType": "string",
                    "name": "",
                    "type": "string"
                },
                {
                    "internalType": "string",
                    "name": "",
                    "type": "string"
                },
                {
                    "internalType": "uint256",
                    "name": "",
                    "type": "uint256"
                },
                {
                    "internalType": "address",
                    "name": "",
                    "type": "address"
                }
            ],
            "stateMutability": "view",
            "type": "function"
        },
        {
            "inputs": [
                {
                    "internalType": "address",
                    "name": "_owner",
                    "type": "address"
                }
            ],
            "name": "getPhonesFromOwner",
            "outputs": [
                {
                    "components": [
                        {
                            "internalType": "uint256",
                            "name": "id",
                            "type": "uint256"
                        },
                        {
                            "internalType": "string",
                            "name": "model_name",
                            "type": "string"
                        },
                        {
                            "internalType": "string",
                            "name": "brand_name",
                            "type": "string"
                        },
                        {
                            "internalType": "uint256",
                            "name": "price",
                            "type": "uint256"
                        },
                        {
                            "internalType": "address",
                            "name": "owner",
                            "type": "address"
                        }
                    ],
                    "internalType": "struct Phones.Phone[]",
                    "name": "",
                    "type": "tuple[]"
                }
            ],
            "stateMutability": "view",
            "type": "function"
        },
        {
            "inputs": [
                {
                    "internalType": "uint256",
                    "name": "_page",
                    "type": "uint256"
                },
                {
                    "internalType": "uint256",
                    "name": "_perPage",
                    "type": "uint256"
                }
            ],
            "name": "getPhonesPage",
            "outputs": [
                {
                    "components": [
                        {
                            "internalType": "uint256",
                            "name": "id",
                            "type": "uint256"
                        },
                        {
                            "internalType": "string",
                            "name": "model_name",
                            "type": "string"
                        },
                        {
                            "internalType": "string",
                            "name": "brand_name",
                            "type": "string"
                        },
                        {
                            "internalType": "uint256",
                            "name": "price",
                            "type": "uint256"
                        },
                        {
                            "internalType": "address",
                            "name": "owner",
                            "type": "address"
                        }
                    ],
                    "internalType": "struct Phones.Phone[]",
                    "name": "",
                    "type": "tuple[]"
                }
            ],
            "stateMutability": "view",
            "type": "function"
        },
        {
            "inputs": [
                {
                    "internalType": "address",
                    "name": "",
                    "type": "address"
                },
                {
                    "internalType": "uint256",
                    "name": "",
                    "type": "uint256"
                }
            ],
            "name": "ownerToPhones",
            "outputs": [
                {
                    "internalType": "uint256",
                    "name": "",
                    "type": "uint256"
                }
            ],
            "stateMutability": "view",
            "type": "function"
        },
        {
            "inputs": [
                {
                    "internalType": "uint256",
                    "name": "",
                    "type": "uint256"
                }
            ],
            "name": "phoneToOwner",
            "outputs": [
                {
                    "internalType": "address",
                    "name": "",
                    "type": "address"
                }
            ],
            "stateMutability": "view",
            "type": "function"
        },
        {
            "inputs": [
                {
                    "internalType": "uint256",
                    "name": "",
                    "type": "uint256"
                }
            ],
            "name": "phones",
            "outputs": [
                {
                    "internalType": "uint256",
                    "name": "id",
                    "type": "uint256"
                },
                {
                    "internalType": "string",
                    "name": "model_name",
                    "type": "string"
                },
                {
                    "internalType": "string",
                    "name": "brand_name",
                    "type": "string"
                },
                {
                    "internalType": "uint256",
                    "name": "price",
                    "type": "uint256"
                },
                {
                    "internalType": "address",
                    "name": "owner",
                    "type": "address"
                }
            ],
            "stateMutability": "view",
            "type": "function"
        },
        {
            "inputs": [
                {
                    "internalType": "address",
                    "name": "_to",
                    "type": "address"
                },
                {
                    "internalType": "uint256",
                    "name": "_id",
                    "type": "uint256"
                }
            ],
            "name": "transferPhone",
            "outputs": [],
            "stateMutability": "nonpayable",
            "type": "function"
        },
        {
            "inputs": [
                {
                    "internalType": "uint256",
                    "name": "_id",
                    "type": "uint256"
                },
                {
                    "internalType": "string",
                    "name": "_model_name",
                    "type": "string"
                },
                {
                    "internalType": "string",
                    "name": "_brand_name",
                    "type": "string"
                },
                {
                    "internalType": "uint256",
                    "name": "_price",
                    "type": "uint256"
                }
            ],
            "name": "updatePhone",
            "outputs": [],
            "stateMutability": "nonpayable",
            "type": "function"
        }
    ],
    "bytecode": "0x608060405234801561001057600080fd5b5061258d806100206000396000f3fe608060405234801561001057600080fd5b506004361061009e5760003560e01c80638c096e0e116100665780638c096e0e1461016f578063ce6127ee1461018b578063ebe66b65146101a7578063efa9d796146101d7578063f3730653146102075761009e565b806312bae201146100a357806318247542146100d35780632e7d44b5146100ef578063380e0df3146101235780633ca02ae614610153575b600080fd5b6100bd60048036038101906100b891906117f6565b61023b565b6040516100ca9190611864565b60405180910390f35b6100ed60048036038101906100e891906119c5565b61026e565b005b610109600480360381019061010491906117f6565b6103a5565b60405161011a959493929190611af2565b60405180910390f35b61013d60048036038101906101389190611b7f565b6105fb565b60405161014a9190611bbf565b60405180910390f35b61016d60048036038101906101689190611b7f565b61062c565b005b610189600480360381019061018491906117f6565b610a03565b005b6101a560048036038101906101a09190611bda565b610c7c565b005b6101c160048036038101906101bc9190611c65565b610eb9565b6040516101ce9190611e39565b60405180910390f35b6101f160048036038101906101ec9190611e5b565b61126a565b6040516101fe9190611e39565b60405180910390f35b610221600480360381019061021c91906117f6565b611594565b604051610232959493929190611af2565b60405180910390f35b60016020528060005260406000206000915054906101000a900473ffffffffffffffffffffffffffffffffffffffff1681565b6001600085815260200190815260200160002060009054906101000a900473ffffffffffffffffffffffffffffffffffffffff1673ffffffffffffffffffffffffffffffffffffffff163373ffffffffffffffffffffffffffffffffffffffff161461030f576040517f08c379a000000000000000000000000000000000000000000000000000000000815260040161030690611f0d565b60405180910390fd5b826000858154811061032457610323611f2d565b5b906000526020600020906005020160010190816103419190612168565b50816000858154811061035757610356611f2d565b5b906000526020600020906005020160020190816103749190612168565b50806000858154811061038a57610389611f2d565b5b90600052602060002090600502016003018190555050505050565b600060608060008060008054905086106103f4576040517f08c379a00000000000000000000000000000000000000000000000000000000081526004016103eb906122ac565b60405180910390fd5b6000868154811061040857610407611f2d565b5b9060005260206000209060050201600001546000878154811061042e5761042d611f2d565b5b90600052602060002090600502016001016000888154811061045357610452611f2d565b5b90600052602060002090600502016002016000898154811061047857610477611f2d565b5b90600052602060002090600502016003015460008a8154811061049e5761049d611f2d565b5b906000526020600020906005020160040160009054906101000a900473ffffffffffffffffffffffffffffffffffffffff168380546104dc90611f8b565b80601f016020809104026020016040519081016040528092919081815260200182805461050890611f8b565b80156105555780601f1061052a57610100808354040283529160200191610555565b820191906000526020600020905b81548152906001019060200180831161053857829003601f168201915b5050505050935082805461056890611f8b565b80601f016020809104026020016040519081016040528092919081815260200182805461059490611f8b565b80156105e15780601f106105b6576101008083540402835291602001916105e1565b820191906000526020600020905b8154815290600101906020018083116105c457829003601f168201915b505050505092509450945094509450945091939590929450565b6002602052816000526040600020818154811061061757600080fd5b90600052602060002001600091509150505481565b6001600082815260200190815260200160002060009054906101000a900473ffffffffffffffffffffffffffffffffffffffff1673ffffffffffffffffffffffffffffffffffffffff163373ffffffffffffffffffffffffffffffffffffffff16146106cd576040517f08c379a00000000000000000000000000000000000000000000000000000000081526004016106c490611f0d565b60405180910390fd5b8173ffffffffffffffffffffffffffffffffffffffff163373ffffffffffffffffffffffffffffffffffffffff160361073b576040517f08c379a000000000000000000000000000000000000000000000000000000000815260040161073290612318565b60405180910390fd5b600a600260008473ffffffffffffffffffffffffffffffffffffffff1673ffffffffffffffffffffffffffffffffffffffff16815260200190815260200160002080549050036107c0576040517f08c379a00000000000000000000000000000000000000000000000000000000081526004016107b7906123aa565b60405180910390fd5b816001600083815260200190815260200160002060006101000a81548173ffffffffffffffffffffffffffffffffffffffff021916908373ffffffffffffffffffffffffffffffffffffffff160217905550600260003373ffffffffffffffffffffffffffffffffffffffff1673ffffffffffffffffffffffffffffffffffffffff16815260200190815260200160002081908060018154018082558091505060019003906000526020600020016000909190919091505560005b600260003373ffffffffffffffffffffffffffffffffffffffff1673ffffffffffffffffffffffffffffffffffffffff1681526020019081526020016000208054905081101561099a5781600260003373ffffffffffffffffffffffffffffffffffffffff1673ffffffffffffffffffffffffffffffffffffffff168152602001908152602001600020828154811061091757610916611f2d565b5b90600052602060002001540361098757600260003373ffffffffffffffffffffffffffffffffffffffff1673ffffffffffffffffffffffffffffffffffffffff168152602001908152602001600020818154811061097857610977611f2d565b5b90600052602060002001600090555b8080610992906123f9565b91505061087b565b5081600082815481106109b0576109af611f2d565b5b906000526020600020906005020160040160006101000a81548173ffffffffffffffffffffffffffffffffffffffff021916908373ffffffffffffffffffffffffffffffffffffffff1602179055505050565b6001600082815260200190815260200160002060009054906101000a900473ffffffffffffffffffffffffffffffffffffffff1673ffffffffffffffffffffffffffffffffffffffff163373ffffffffffffffffffffffffffffffffffffffff1614610aa4576040517f08c379a0000000000000000000000000000000000000000000000000000000008152600401610a9b90611f0d565b60405180910390fd5b60008181548110610ab857610ab7611f2d565b5b9060005260206000209060050201600080820160009055600182016000610adf919061170a565b600282016000610aef919061170a565b60038201600090556004820160006101000a81549073ffffffffffffffffffffffffffffffffffffffff021916905550506001600082815260200190815260200160002060006101000a81549073ffffffffffffffffffffffffffffffffffffffff021916905560005b600260003373ffffffffffffffffffffffffffffffffffffffff1673ffffffffffffffffffffffffffffffffffffffff16815260200190815260200160002080549050811015610c785781600260003373ffffffffffffffffffffffffffffffffffffffff1673ffffffffffffffffffffffffffffffffffffffff1681526020019081526020016000208281548110610bf557610bf4611f2d565b5b906000526020600020015403610c6557600260003373ffffffffffffffffffffffffffffffffffffffff1673ffffffffffffffffffffffffffffffffffffffff1681526020019081526020016000208181548110610c5657610c55611f2d565b5b90600052602060002001600090555b8080610c70906123f9565b915050610b59565b5050565b600a600260003373ffffffffffffffffffffffffffffffffffffffff1673ffffffffffffffffffffffffffffffffffffffff1681526020019081526020016000208054905010610d01576040517f08c379a0000000000000000000000000000000000000000000000000000000008152600401610cf89061248d565b60405180910390fd5b60008080549050905060006040518060a001604052808381526020018681526020018581526020018481526020013373ffffffffffffffffffffffffffffffffffffffff168152509080600181540180825580915050600190039060005260206000209060050201600090919091909150600082015181600001556020820151816001019081610d919190612168565b506040820151816002019081610da79190612168565b506060820151816003015560808201518160040160006101000a81548173ffffffffffffffffffffffffffffffffffffffff021916908373ffffffffffffffffffffffffffffffffffffffff1602179055505050336001600083815260200190815260200160002060006101000a81548173ffffffffffffffffffffffffffffffffffffffff021916908373ffffffffffffffffffffffffffffffffffffffff160217905550600260003373ffffffffffffffffffffffffffffffffffffffff1673ffffffffffffffffffffffffffffffffffffffff16815260200190815260200160002081908060018154018082558091505060019003906000526020600020016000909190919091505550505050565b60606000600260008473ffffffffffffffffffffffffffffffffffffffff1673ffffffffffffffffffffffffffffffffffffffff1681526020019081526020016000208054905003610f6157600067ffffffffffffffff811115610f2057610f1f61189a565b5b604051908082528060200260200182016040528015610f5957816020015b610f4661174a565b815260200190600190039081610f3e5790505b509050611265565b6000600260008473ffffffffffffffffffffffffffffffffffffffff1673ffffffffffffffffffffffffffffffffffffffff168152602001908152602001600020805480602002602001604051908101604052809291908181526020018280548015610fec57602002820191906000526020600020905b815481526020019060010190808311610fd8575b505050505090506000815167ffffffffffffffff8111156110105761100f61189a565b5b60405190808252806020026020018201604052801561104957816020015b61103661174a565b81526020019060019003908161102e5790505b50905060005b825181101561125e57600083828151811061106d5761106c611f2d565b5b60200260200101518154811061108657611085611f2d565b5b90600052602060002090600502016040518060a0016040529081600082015481526020016001820180546110b990611f8b565b80601f01602080910402602001604051908101604052809291908181526020018280546110e590611f8b565b80156111325780601f1061110757610100808354040283529160200191611132565b820191906000526020600020905b81548152906001019060200180831161111557829003601f168201915b5050505050815260200160028201805461114b90611f8b565b80601f016020809104026020016040519081016040528092919081815260200182805461117790611f8b565b80156111c45780601f10611199576101008083540402835291602001916111c4565b820191906000526020600020905b8154815290600101906020018083116111a757829003601f168201915b50505050508152602001600382015481526020016004820160009054906101000a900473ffffffffffffffffffffffffffffffffffffffff1673ffffffffffffffffffffffffffffffffffffffff1673ffffffffffffffffffffffffffffffffffffffff16815250508282815181106112405761123f611f2d565b5b60200260200101819052508080611256906123f9565b91505061104f565b5080925050505b919050565b6060600083148061127b5750600082145b156112dc57600067ffffffffffffffff81111561129b5761129a61189a565b5b6040519080825280602002602001820160405280156112d457816020015b6112c161174a565b8152602001906001900390816112b95790505b50905061158e565b6000826001856112ec91906124ad565b6112f691906124e1565b9050600083826113069190612523565b905060008054905081111561131e5760008054905090505b6000828261132c91906124ad565b67ffffffffffffffff8111156113455761134461189a565b5b60405190808252806020026020018201604052801561137e57816020015b61136b61174a565b8152602001906001900390816113635790505b50905060008390505b8281101561158657600081815481106113a3576113a2611f2d565b5b90600052602060002090600502016040518060a0016040529081600082015481526020016001820180546113d690611f8b565b80601f016020809104026020016040519081016040528092919081815260200182805461140290611f8b565b801561144f5780601f106114245761010080835404028352916020019161144f565b820191906000526020600020905b81548152906001019060200180831161143257829003601f168201915b5050505050815260200160028201805461146890611f8b565b80601f016020809104026020016040519081016040528092919081815260200182805461149490611f8b565b80156114e15780601f106114b6576101008083540402835291602001916114e1565b820191906000526020600020905b8154815290600101906020018083116114c457829003601f168201915b50505050508152602001600382015481526020016004820160009054906101000a900473ffffffffffffffffffffffffffffffffffffffff1673ffffffffffffffffffffffffffffffffffffffff1673ffffffffffffffffffffffffffffffffffffffff168152505082858361155791906124ad565b8151811061156857611567611f2d565b5b6020026020010181905250808061157e906123f9565b915050611387565b508093505050505b92915050565b600081815481106115a457600080fd5b90600052602060002090600502016000915090508060000154908060010180546115cd90611f8b565b80601f01602080910402602001604051908101604052809291908181526020018280546115f990611f8b565b80156116465780601f1061161b57610100808354040283529160200191611646565b820191906000526020600020905b81548152906001019060200180831161162957829003601f168201915b50505050509080600201805461165b90611f8b565b80601f016020809104026020016040519081016040528092919081815260200182805461168790611f8b565b80156116d45780601f106116a9576101008083540402835291602001916116d4565b820191906000526020600020905b8154815290600101906020018083116116b757829003601f168201915b5050505050908060030154908060040160009054906101000a900473ffffffffffffffffffffffffffffffffffffffff16905085565b50805461171690611f8b565b6000825580601f106117285750611747565b601f016020900490600052602060002090810190611746919061178f565b5b50565b6040518060a0016040528060008152602001606081526020016060815260200160008152602001600073ffffffffffffffffffffffffffffffffffffffff1681525090565b5b808211156117a8576000816000905550600101611790565b5090565b6000604051905090565b600080fd5b600080fd5b6000819050919050565b6117d3816117c0565b81146117de57600080fd5b50565b6000813590506117f0816117ca565b92915050565b60006020828403121561180c5761180b6117b6565b5b600061181a848285016117e1565b91505092915050565b600073ffffffffffffffffffffffffffffffffffffffff82169050919050565b600061184e82611823565b9050919050565b61185e81611843565b82525050565b60006020820190506118796000830184611855565b92915050565b600080fd5b600080fd5b6000601f19601f8301169050919050565b7f4e487b7100000000000000000000000000000000000000000000000000000000600052604160045260246000fd5b6118d282611889565b810181811067ffffffffffffffff821117156118f1576118f061189a565b5b80604052505050565b60006119046117ac565b905061191082826118c9565b919050565b600067ffffffffffffffff8211156119305761192f61189a565b5b61193982611889565b9050602081019050919050565b82818337600083830152505050565b600061196861196384611915565b6118fa565b90508281526020810184848401111561198457611983611884565b5b61198f848285611946565b509392505050565b600082601f8301126119ac576119ab61187f565b5b81356119bc848260208601611955565b91505092915050565b600080600080608085870312156119df576119de6117b6565b5b60006119ed878288016117e1565b945050602085013567ffffffffffffffff811115611a0e57611a0d6117bb565b5b611a1a87828801611997565b935050604085013567ffffffffffffffff811115611a3b57611a3a6117bb565b5b611a4787828801611997565b9250506060611a58878288016117e1565b91505092959194509250565b611a6d816117c0565b82525050565b600081519050919050565b600082825260208201905092915050565b60005b83811015611aad578082015181840152602081019050611a92565b60008484015250505050565b6000611ac482611a73565b611ace8185611a7e565b9350611ade818560208601611a8f565b611ae781611889565b840191505092915050565b600060a082019050611b076000830188611a64565b8181036020830152611b198187611ab9565b90508181036040830152611b2d8186611ab9565b9050611b3c6060830185611a64565b611b496080830184611855565b9695505050505050565b611b5c81611843565b8114611b6757600080fd5b50565b600081359050611b7981611b53565b92915050565b60008060408385031215611b9657611b956117b6565b5b6000611ba485828601611b6a565b9250506020611bb5858286016117e1565b9150509250929050565b6000602082019050611bd46000830184611a64565b92915050565b600080600060608486031215611bf357611bf26117b6565b5b600084013567ffffffffffffffff811115611c1157611c106117bb565b5b611c1d86828701611997565b935050602084013567ffffffffffffffff811115611c3e57611c3d6117bb565b5b611c4a86828701611997565b9250506040611c5b868287016117e1565b9150509250925092565b600060208284031215611c7b57611c7a6117b6565b5b6000611c8984828501611b6a565b91505092915050565b600081519050919050565b600082825260208201905092915050565b6000819050602082019050919050565b611cc7816117c0565b82525050565b600082825260208201905092915050565b6000611ce982611a73565b611cf38185611ccd565b9350611d03818560208601611a8f565b611d0c81611889565b840191505092915050565b611d2081611843565b82525050565b600060a083016000830151611d3e6000860182611cbe565b5060208301518482036020860152611d568282611cde565b91505060408301518482036040860152611d708282611cde565b9150506060830151611d856060860182611cbe565b506080830151611d986080860182611d17565b508091505092915050565b6000611daf8383611d26565b905092915050565b6000602082019050919050565b6000611dcf82611c92565b611dd98185611c9d565b935083602082028501611deb85611cae565b8060005b85811015611e275784840389528151611e088582611da3565b9450611e1383611db7565b925060208a01995050600181019050611def565b50829750879550505050505092915050565b60006020820190508181036000830152611e538184611dc4565b905092915050565b60008060408385031215611e7257611e716117b6565b5b6000611e80858286016117e1565b9250506020611e91858286016117e1565b9150509250929050565b7f596f7520617265206e6f7420746865206f776e6572206f66207468697320706860008201527f6f6e650000000000000000000000000000000000000000000000000000000000602082015250565b6000611ef7602383611a7e565b9150611f0282611e9b565b604082019050919050565b60006020820190508181036000830152611f2681611eea565b9050919050565b7f4e487b7100000000000000000000000000000000000000000000000000000000600052603260045260246000fd5b7f4e487b7100000000000000000000000000000000000000000000000000000000600052602260045260246000fd5b60006002820490506001821680611fa357607f821691505b602082108103611fb657611fb5611f5c565b5b50919050565b60008190508160005260206000209050919050565b60006020601f8301049050919050565b600082821b905092915050565b60006008830261201e7fffffffffffffffffffffffffffffffffffffffffffffffffffffffffffffffff82611fe1565b6120288683611fe1565b95508019841693508086168417925050509392505050565b6000819050919050565b600061206561206061205b846117c0565b612040565b6117c0565b9050919050565b6000819050919050565b61207f8361204a565b61209361208b8261206c565b848454611fee565b825550505050565b600090565b6120a861209b565b6120b3818484612076565b505050565b5b818110156120d7576120cc6000826120a0565b6001810190506120b9565b5050565b601f82111561211c576120ed81611fbc565b6120f684611fd1565b81016020851015612105578190505b61211961211185611fd1565b8301826120b8565b50505b505050565b600082821c905092915050565b600061213f60001984600802612121565b1980831691505092915050565b6000612158838361212e565b9150826002028217905092915050565b61217182611a73565b67ffffffffffffffff81111561218a5761218961189a565b5b6121948254611f8b565b61219f8282856120db565b600060209050601f8311600181146121d257600084156121c0578287015190505b6121ca858261214c565b865550612232565b601f1984166121e086611fbc565b60005b82811015612208578489015182556001820191506020850194506020810190506121e3565b868310156122255784890151612221601f89168261212e565b8355505b6001600288020188555050505b505050505050565b7f50686f6e652077697468207468697320696420646f6573206e6f74206578697360008201527f7400000000000000000000000000000000000000000000000000000000000000602082015250565b6000612296602183611a7e565b91506122a18261223a565b604082019050919050565b600060208201905081810360008301526122c581612289565b9050919050565b7f596f7520616c7265616479206f776e20746869732070686f6e65000000000000600082015250565b6000612302601a83611a7e565b915061230d826122cc565b602082019050919050565b60006020820190508181036000830152612331816122f5565b9050919050565b7f54686520726563656976657220616c7265616479206f776e732031302070686f60008201527f6e65730000000000000000000000000000000000000000000000000000000000602082015250565b6000612394602383611a7e565b915061239f82612338565b604082019050919050565b600060208201905081810360008301526123c381612387565b9050919050565b7f4e487b7100000000000000000000000000000000000000000000000000000000600052601160045260246000fd5b6000612404826117c0565b91507fffffffffffffffffffffffffffffffffffffffffffffffffffffffffffffffff8203612436576124356123ca565b5b600182019050919050565b7f596f752063616e206f6e6c79206372656174652031302070686f6e6573000000600082015250565b6000612477601d83611a7e565b915061248282612441565b602082019050919050565b600060208201905081810360008301526124a68161246a565b9050919050565b60006124b8826117c0565b91506124c3836117c0565b92508282039050818111156124db576124da6123ca565b5b92915050565b60006124ec826117c0565b91506124f7836117c0565b9250828202612505816117c0565b9150828204841483151761251c5761251b6123ca565b5b5092915050565b600061252e826117c0565b9150612539836117c0565b9250828201905080821115612551576125506123ca565b5b9291505056fea2646970667358221220b79208c168a659144082b9a3bdb5f005f4217f5561977aa6f1407860a15e580e64736f6c63430008130033",
    "linkReferences": {},
    "deployedLinkReferences": {}
}