{
    "_format": "hh-sol-artifact-1",
    "contractName": "Phones",
    "sourceName": "contracts/Phones.sol",
    "abi": [
        {
            "inputs": [
                {
                    "internalType": "uint256",
                    "name": "_id",
                    "type": "uint256"
                }
            ],
            "name": "acquireOwnerlessPhone",
            "outputs": [],
            "stateMutability": "nonpayable",
            "type": "function"
        },
        {
            "inputs": [
                {
                    "internalType": "string",
                    "name": "_model_name",
                    "type": "string"
                },
                {
                    "internalType": "string",
                    "name": "_brand_name",
                    "type": "string"
                },
                {
                    "internalType": "uint256",
                    "name": "_price",
                    "type": "uint256"
                }
            ],
            "name": "createPhone",
            "outputs": [],
            "stateMutability": "nonpayable",
            "type": "function"
        },
        {
            "inputs": [
                {
                    "internalType": "uint256",
                    "name": "_id",
                    "type": "uint256"
                }
            ],
            "name": "deletePhone",
            "outputs": [],
            "stateMutability": "nonpayable",
            "type": "function"
        },
        {
            "inputs": [
                {
                    "internalType": "uint256",
                    "name": "_id",
                    "type": "uint256"
                }
            ],
            "name": "getPhone",
            "outputs": [
                {
                    "internalType": "uint256",
                    "name": "",
                    "type": "uint256"
                },
                {
                    "internalType": "string",
                    "name": "",
                    "type": "string"
                },
                {
                    "internalType": "string",
                    "name": "",
                    "type": "string"
                },
                {
                    "internalType": "uint256",
                    "name": "",
                    "type": "uint256"
                },
                {
                    "internalType": "address",
                    "name": "",
                    "type": "address"
                }
            ],
            "stateMutability": "view",
            "type": "function"
        },
        {
            "inputs": [],
            "name": "getPhoneCount",
            "outputs": [
                {
                    "internalType": "uint256",
                    "name": "",
                    "type": "uint256"
                }
            ],
            "stateMutability": "view",
            "type": "function"
        },
        {
            "inputs": [
                {
                    "internalType": "address",
                    "name": "_owner",
                    "type": "address"
                }
            ],
            "name": "getPhonesFromOwner",
            "outputs": [
                {
                    "components": [
                        {
                            "internalType": "uint256",
                            "name": "id",
                            "type": "uint256"
                        },
                        {
                            "internalType": "string",
                            "name": "model_name",
                            "type": "string"
                        },
                        {
                            "internalType": "string",
                            "name": "brand_name",
                            "type": "string"
                        },
                        {
                            "internalType": "uint256",
                            "name": "price",
                            "type": "uint256"
                        },
                        {
                            "internalType": "address",
                            "name": "owner",
                            "type": "address"
                        }
                    ],
                    "internalType": "struct Phones.Phone[]",
                    "name": "",
                    "type": "tuple[]"
                }
            ],
            "stateMutability": "view",
            "type": "function"
        },
        {
            "inputs": [
                {
                    "internalType": "uint256",
                    "name": "_page",
                    "type": "uint256"
                },
                {
                    "internalType": "uint256",
                    "name": "_perPage",
                    "type": "uint256"
                }
            ],
            "name": "getPhonesPage",
            "outputs": [
                {
                    "components": [
                        {
                            "internalType": "uint256",
                            "name": "id",
                            "type": "uint256"
                        },
                        {
                            "internalType": "string",
                            "name": "model_name",
                            "type": "string"
                        },
                        {
                            "internalType": "string",
                            "name": "brand_name",
                            "type": "string"
                        },
                        {
                            "internalType": "uint256",
                            "name": "price",
                            "type": "uint256"
                        },
                        {
                            "internalType": "address",
                            "name": "owner",
                            "type": "address"
                        }
                    ],
                    "internalType": "struct Phones.Phone[]",
                    "name": "",
                    "type": "tuple[]"
                }
            ],
            "stateMutability": "view",
            "type": "function"
        },
        {
            "inputs": [
                {
                    "internalType": "address",
                    "name": "",
                    "type": "address"
                },
                {
                    "internalType": "uint256",
                    "name": "",
                    "type": "uint256"
                }
            ],
            "name": "ownerToPhones",
            "outputs": [
                {
                    "internalType": "uint256",
                    "name": "",
                    "type": "uint256"
                }
            ],
            "stateMutability": "view",
            "type": "function"
        },
        {
            "inputs": [
                {
                    "internalType": "uint256",
                    "name": "",
                    "type": "uint256"
                }
            ],
            "name": "phoneToOwner",
            "outputs": [
                {
                    "internalType": "address",
                    "name": "",
                    "type": "address"
                }
            ],
            "stateMutability": "view",
            "type": "function"
        },
        {
            "inputs": [
                {
                    "internalType": "uint256",
                    "name": "",
                    "type": "uint256"
                }
            ],
            "name": "phones",
            "outputs": [
                {
                    "internalType": "uint256",
                    "name": "id",
                    "type": "uint256"
                },
                {
                    "internalType": "string",
                    "name": "model_name",
                    "type": "string"
                },
                {
                    "internalType": "string",
                    "name": "brand_name",
                    "type": "string"
                },
                {
                    "internalType": "uint256",
                    "name": "price",
                    "type": "uint256"
                },
                {
                    "internalType": "address",
                    "name": "owner",
                    "type": "address"
                }
            ],
            "stateMutability": "view",
            "type": "function"
        },
        {
            "inputs": [
                {
                    "internalType": "address",
                    "name": "_to",
                    "type": "address"
                },
                {
                    "internalType": "uint256",
                    "name": "_id",
                    "type": "uint256"
                }
            ],
            "name": "transferPhone",
            "outputs": [],
            "stateMutability": "nonpayable",
            "type": "function"
        },
        {
            "inputs": [
                {
                    "internalType": "uint256",
                    "name": "_id",
                    "type": "uint256"
                },
                {
                    "internalType": "string",
                    "name": "_model_name",
                    "type": "string"
                },
                {
                    "internalType": "string",
                    "name": "_brand_name",
                    "type": "string"
                },
                {
                    "internalType": "uint256",
                    "name": "_price",
                    "type": "uint256"
                }
            ],
            "name": "updatePhone",
            "outputs": [],
            "stateMutability": "nonpayable",
            "type": "function"
        }
    ],
    "bytecode": "0x608060405234801561001057600080fd5b506127cc806100206000396000f3fe608060405234801561001057600080fd5b50600436106100b45760003560e01c80636132d789116100715780636132d789146101a15780638c096e0e146101bf578063ce6127ee146101db578063ebe66b65146101f7578063efa9d79614610227578063f373065314610257576100b4565b806312bae201146100b957806318247542146100e95780632e7d44b514610105578063380e0df3146101395780633ca02ae61461016957806356aef25b14610185575b600080fd5b6100d360048036038101906100ce9190611a35565b61028b565b6040516100e09190611aa3565b60405180910390f35b61010360048036038101906100fe9190611c04565b6102be565b005b61011f600480360381019061011a9190611a35565b6103f5565b604051610130959493929190611d31565b60405180910390f35b610153600480360381019061014e9190611dbe565b61064b565b6040516101609190611dfe565b60405180910390f35b610183600480360381019061017e9190611dbe565b61067c565b005b61019f600480360381019061019a9190611a35565b610a53565b005b6101a9610cab565b6040516101b69190611dfe565b60405180910390f35b6101d960048036038101906101d49190611a35565b610cb7565b005b6101f560048036038101906101f09190611e19565b610f18565b005b610211600480360381019061020c9190611ea4565b611155565b60405161021e9190612078565b60405180910390f35b610241600480360381019061023c919061209a565b611506565b60405161024e9190612078565b60405180910390f35b610271600480360381019061026c9190611a35565b611830565b604051610282959493929190611d31565b60405180910390f35b60016020528060005260406000206000915054906101000a900473ffffffffffffffffffffffffffffffffffffffff1681565b6001600085815260200190815260200160002060009054906101000a900473ffffffffffffffffffffffffffffffffffffffff1673ffffffffffffffffffffffffffffffffffffffff163373ffffffffffffffffffffffffffffffffffffffff161461035f576040517f08c379a00000000000000000000000000000000000000000000000000000000081526004016103569061214c565b60405180910390fd5b82600085815481106103745761037361216c565b5b9060005260206000209060050201600101908161039191906123a7565b5081600085815481106103a7576103a661216c565b5b906000526020600020906005020160020190816103c491906123a7565b5080600085815481106103da576103d961216c565b5b90600052602060002090600502016003018190555050505050565b60006060806000806000805490508610610444576040517f08c379a000000000000000000000000000000000000000000000000000000000815260040161043b906124eb565b60405180910390fd5b600086815481106104585761045761216c565b5b9060005260206000209060050201600001546000878154811061047e5761047d61216c565b5b9060005260206000209060050201600101600088815481106104a3576104a261216c565b5b9060005260206000209060050201600201600089815481106104c8576104c761216c565b5b90600052602060002090600502016003015460008a815481106104ee576104ed61216c565b5b906000526020600020906005020160040160009054906101000a900473ffffffffffffffffffffffffffffffffffffffff1683805461052c906121ca565b80601f0160208091040260200160405190810160405280929190818152602001828054610558906121ca565b80156105a55780601f1061057a576101008083540402835291602001916105a5565b820191906000526020600020905b81548152906001019060200180831161058857829003601f168201915b505050505093508280546105b8906121ca565b80601f01602080910402602001604051908101604052809291908181526020018280546105e4906121ca565b80156106315780601f1061060657610100808354040283529160200191610631565b820191906000526020600020905b81548152906001019060200180831161061457829003601f168201915b505050505092509450945094509450945091939590929450565b6002602052816000526040600020818154811061066757600080fd5b90600052602060002001600091509150505481565b6001600082815260200190815260200160002060009054906101000a900473ffffffffffffffffffffffffffffffffffffffff1673ffffffffffffffffffffffffffffffffffffffff163373ffffffffffffffffffffffffffffffffffffffff161461071d576040517f08c379a00000000000000000000000000000000000000000000000000000000081526004016107149061214c565b60405180910390fd5b600a600260008473ffffffffffffffffffffffffffffffffffffffff1673ffffffffffffffffffffffffffffffffffffffff16815260200190815260200160002080549050106107a2576040517f08c379a00000000000000000000000000000000000000000000000000000000081526004016107999061257d565b60405180910390fd5b8173ffffffffffffffffffffffffffffffffffffffff163373ffffffffffffffffffffffffffffffffffffffff1603610810576040517f08c379a0000000000000000000000000000000000000000000000000000000008152600401610807906125e9565b60405180910390fd5b816001600083815260200190815260200160002060006101000a81548173ffffffffffffffffffffffffffffffffffffffff021916908373ffffffffffffffffffffffffffffffffffffffff160217905550600260008373ffffffffffffffffffffffffffffffffffffffff1673ffffffffffffffffffffffffffffffffffffffff16815260200190815260200160002081908060018154018082558091505060019003906000526020600020016000909190919091505560005b600260003373ffffffffffffffffffffffffffffffffffffffff1673ffffffffffffffffffffffffffffffffffffffff168152602001908152602001600020805490508110156109ea5781600260003373ffffffffffffffffffffffffffffffffffffffff1673ffffffffffffffffffffffffffffffffffffffff16815260200190815260200160002082815481106109675761096661216c565b5b9060005260206000200154036109d757600260003373ffffffffffffffffffffffffffffffffffffffff1673ffffffffffffffffffffffffffffffffffffffff16815260200190815260200160002081815481106109c8576109c761216c565b5b90600052602060002001600090555b80806109e290612638565b9150506108cb565b508160008281548110610a00576109ff61216c565b5b906000526020600020906005020160040160006101000a81548173ffffffffffffffffffffffffffffffffffffffff021916908373ffffffffffffffffffffffffffffffffffffffff1602179055505050565b600073ffffffffffffffffffffffffffffffffffffffff1660008281548110610a7f57610a7e61216c565b5b906000526020600020906005020160040160009054906101000a900473ffffffffffffffffffffffffffffffffffffffff1673ffffffffffffffffffffffffffffffffffffffff1614610b07576040517f08c379a0000000000000000000000000000000000000000000000000000000008152600401610afe906126cc565b60405180910390fd5b600a600260003373ffffffffffffffffffffffffffffffffffffffff1673ffffffffffffffffffffffffffffffffffffffff1681526020019081526020016000208054905010610b8c576040517f08c379a0000000000000000000000000000000000000000000000000000000008152600401610b839061257d565b60405180910390fd5b336001600083815260200190815260200160002060006101000a81548173ffffffffffffffffffffffffffffffffffffffff021916908373ffffffffffffffffffffffffffffffffffffffff160217905550600260003373ffffffffffffffffffffffffffffffffffffffff1673ffffffffffffffffffffffffffffffffffffffff1681526020019081526020016000208190806001815401808255809150506001900390600052602060002001600090919091909150553360008281548110610c5957610c5861216c565b5b906000526020600020906005020160040160006101000a81548173ffffffffffffffffffffffffffffffffffffffff021916908373ffffffffffffffffffffffffffffffffffffffff16021790555050565b60008080549050905090565b6001600082815260200190815260200160002060009054906101000a900473ffffffffffffffffffffffffffffffffffffffff1673ffffffffffffffffffffffffffffffffffffffff163373ffffffffffffffffffffffffffffffffffffffff1614610d58576040517f08c379a0000000000000000000000000000000000000000000000000000000008152600401610d4f9061214c565b60405180910390fd5b6001600082815260200190815260200160002060006101000a81549073ffffffffffffffffffffffffffffffffffffffff021916905560005b600260003373ffffffffffffffffffffffffffffffffffffffff1673ffffffffffffffffffffffffffffffffffffffff16815260200190815260200160002080549050811015610eb05781600260003373ffffffffffffffffffffffffffffffffffffffff1673ffffffffffffffffffffffffffffffffffffffff1681526020019081526020016000208281548110610e2d57610e2c61216c565b5b906000526020600020015403610e9d57600260003373ffffffffffffffffffffffffffffffffffffffff1673ffffffffffffffffffffffffffffffffffffffff1681526020019081526020016000208181548110610e8e57610e8d61216c565b5b90600052602060002001600090555b8080610ea890612638565b915050610d91565b506000808281548110610ec657610ec561216c565b5b906000526020600020906005020160040160006101000a81548173ffffffffffffffffffffffffffffffffffffffff021916908373ffffffffffffffffffffffffffffffffffffffff16021790555050565b600a600260003373ffffffffffffffffffffffffffffffffffffffff1673ffffffffffffffffffffffffffffffffffffffff1681526020019081526020016000208054905010610f9d576040517f08c379a0000000000000000000000000000000000000000000000000000000008152600401610f949061257d565b60405180910390fd5b60008080549050905060006040518060a001604052808381526020018681526020018581526020018481526020013373ffffffffffffffffffffffffffffffffffffffff16815250908060018154018082558091505060019003906000526020600020906005020160009091909190915060008201518160000155602082015181600101908161102d91906123a7565b50604082015181600201908161104391906123a7565b506060820151816003015560808201518160040160006101000a81548173ffffffffffffffffffffffffffffffffffffffff021916908373ffffffffffffffffffffffffffffffffffffffff1602179055505050336001600083815260200190815260200160002060006101000a81548173ffffffffffffffffffffffffffffffffffffffff021916908373ffffffffffffffffffffffffffffffffffffffff160217905550600260003373ffffffffffffffffffffffffffffffffffffffff1673ffffffffffffffffffffffffffffffffffffffff16815260200190815260200160002081908060018154018082558091505060019003906000526020600020016000909190919091505550505050565b60606000600260008473ffffffffffffffffffffffffffffffffffffffff1673ffffffffffffffffffffffffffffffffffffffff16815260200190815260200160002080549050036111fd57600067ffffffffffffffff8111156111bc576111bb611ad9565b5b6040519080825280602002602001820160405280156111f557816020015b6111e26119a6565b8152602001906001900390816111da5790505b509050611501565b6000600260008473ffffffffffffffffffffffffffffffffffffffff1673ffffffffffffffffffffffffffffffffffffffff16815260200190815260200160002080548060200260200160405190810160405280929190818152602001828054801561128857602002820191906000526020600020905b815481526020019060010190808311611274575b505050505090506000815167ffffffffffffffff8111156112ac576112ab611ad9565b5b6040519080825280602002602001820160405280156112e557816020015b6112d26119a6565b8152602001906001900390816112ca5790505b50905060005b82518110156114fa5760008382815181106113095761130861216c565b5b6020026020010151815481106113225761132161216c565b5b90600052602060002090600502016040518060a001604052908160008201548152602001600182018054611355906121ca565b80601f0160208091040260200160405190810160405280929190818152602001828054611381906121ca565b80156113ce5780601f106113a3576101008083540402835291602001916113ce565b820191906000526020600020905b8154815290600101906020018083116113b157829003601f168201915b505050505081526020016002820180546113e7906121ca565b80601f0160208091040260200160405190810160405280929190818152602001828054611413906121ca565b80156114605780601f1061143557610100808354040283529160200191611460565b820191906000526020600020905b81548152906001019060200180831161144357829003601f168201915b50505050508152602001600382015481526020016004820160009054906101000a900473ffffffffffffffffffffffffffffffffffffffff1673ffffffffffffffffffffffffffffffffffffffff1673ffffffffffffffffffffffffffffffffffffffff16815250508282815181106114dc576114db61216c565b5b602002602001018190525080806114f290612638565b9150506112eb565b5080925050505b919050565b606060008314806115175750600082145b1561157857600067ffffffffffffffff81111561153757611536611ad9565b5b60405190808252806020026020018201604052801561157057816020015b61155d6119a6565b8152602001906001900390816115555790505b50905061182a565b60008260018561158891906126ec565b6115929190612720565b9050600083826115a29190612762565b90506000805490508111156115ba5760008054905090505b600082826115c891906126ec565b67ffffffffffffffff8111156115e1576115e0611ad9565b5b60405190808252806020026020018201604052801561161a57816020015b6116076119a6565b8152602001906001900390816115ff5790505b50905060008390505b82811015611822576000818154811061163f5761163e61216c565b5b90600052602060002090600502016040518060a001604052908160008201548152602001600182018054611672906121ca565b80601f016020809104026020016040519081016040528092919081815260200182805461169e906121ca565b80156116eb5780601f106116c0576101008083540402835291602001916116eb565b820191906000526020600020905b8154815290600101906020018083116116ce57829003601f168201915b50505050508152602001600282018054611704906121ca565b80601f0160208091040260200160405190810160405280929190818152602001828054611730906121ca565b801561177d5780601f106117525761010080835404028352916020019161177d565b820191906000526020600020905b81548152906001019060200180831161176057829003601f168201915b50505050508152602001600382015481526020016004820160009054906101000a900473ffffffffffffffffffffffffffffffffffffffff1673ffffffffffffffffffffffffffffffffffffffff1673ffffffffffffffffffffffffffffffffffffffff16815250508285836117f391906126ec565b815181106118045761180361216c565b5b6020026020010181905250808061181a90612638565b915050611623565b508093505050505b92915050565b6000818154811061184057600080fd5b9060005260206000209060050201600091509050806000015490806001018054611869906121ca565b80601f0160208091040260200160405190810160405280929190818152602001828054611895906121ca565b80156118e25780601f106118b7576101008083540402835291602001916118e2565b820191906000526020600020905b8154815290600101906020018083116118c557829003601f168201915b5050505050908060020180546118f7906121ca565b80601f0160208091040260200160405190810160405280929190818152602001828054611923906121ca565b80156119705780601f1061194557610100808354040283529160200191611970565b820191906000526020600020905b81548152906001019060200180831161195357829003601f168201915b5050505050908060030154908060040160009054906101000a900473ffffffffffffffffffffffffffffffffffffffff16905085565b6040518060a0016040528060008152602001606081526020016060815260200160008152602001600073ffffffffffffffffffffffffffffffffffffffff1681525090565b6000604051905090565b600080fd5b600080fd5b6000819050919050565b611a12816119ff565b8114611a1d57600080fd5b50565b600081359050611a2f81611a09565b92915050565b600060208284031215611a4b57611a4a6119f5565b5b6000611a5984828501611a20565b91505092915050565b600073ffffffffffffffffffffffffffffffffffffffff82169050919050565b6000611a8d82611a62565b9050919050565b611a9d81611a82565b82525050565b6000602082019050611ab86000830184611a94565b92915050565b600080fd5b600080fd5b6000601f19601f8301169050919050565b7f4e487b7100000000000000000000000000000000000000000000000000000000600052604160045260246000fd5b611b1182611ac8565b810181811067ffffffffffffffff82111715611b3057611b2f611ad9565b5b80604052505050565b6000611b436119eb565b9050611b4f8282611b08565b919050565b600067ffffffffffffffff821115611b6f57611b6e611ad9565b5b611b7882611ac8565b9050602081019050919050565b82818337600083830152505050565b6000611ba7611ba284611b54565b611b39565b905082815260208101848484011115611bc357611bc2611ac3565b5b611bce848285611b85565b509392505050565b600082601f830112611beb57611bea611abe565b5b8135611bfb848260208601611b94565b91505092915050565b60008060008060808587031215611c1e57611c1d6119f5565b5b6000611c2c87828801611a20565b945050602085013567ffffffffffffffff811115611c4d57611c4c6119fa565b5b611c5987828801611bd6565b935050604085013567ffffffffffffffff811115611c7a57611c796119fa565b5b611c8687828801611bd6565b9250506060611c9787828801611a20565b91505092959194509250565b611cac816119ff565b82525050565b600081519050919050565b600082825260208201905092915050565b60005b83811015611cec578082015181840152602081019050611cd1565b60008484015250505050565b6000611d0382611cb2565b611d0d8185611cbd565b9350611d1d818560208601611cce565b611d2681611ac8565b840191505092915050565b600060a082019050611d466000830188611ca3565b8181036020830152611d588187611cf8565b90508181036040830152611d6c8186611cf8565b9050611d7b6060830185611ca3565b611d886080830184611a94565b9695505050505050565b611d9b81611a82565b8114611da657600080fd5b50565b600081359050611db881611d92565b92915050565b60008060408385031215611dd557611dd46119f5565b5b6000611de385828601611da9565b9250506020611df485828601611a20565b9150509250929050565b6000602082019050611e136000830184611ca3565b92915050565b600080600060608486031215611e3257611e316119f5565b5b600084013567ffffffffffffffff811115611e5057611e4f6119fa565b5b611e5c86828701611bd6565b935050602084013567ffffffffffffffff811115611e7d57611e7c6119fa565b5b611e8986828701611bd6565b9250506040611e9a86828701611a20565b9150509250925092565b600060208284031215611eba57611eb96119f5565b5b6000611ec884828501611da9565b91505092915050565b600081519050919050565b600082825260208201905092915050565b6000819050602082019050919050565b611f06816119ff565b82525050565b600082825260208201905092915050565b6000611f2882611cb2565b611f328185611f0c565b9350611f42818560208601611cce565b611f4b81611ac8565b840191505092915050565b611f5f81611a82565b82525050565b600060a083016000830151611f7d6000860182611efd565b5060208301518482036020860152611f958282611f1d565b91505060408301518482036040860152611faf8282611f1d565b9150506060830151611fc46060860182611efd565b506080830151611fd76080860182611f56565b508091505092915050565b6000611fee8383611f65565b905092915050565b6000602082019050919050565b600061200e82611ed1565b6120188185611edc565b93508360208202850161202a85611eed565b8060005b8581101561206657848403895281516120478582611fe2565b945061205283611ff6565b925060208a0199505060018101905061202e565b50829750879550505050505092915050565b600060208201905081810360008301526120928184612003565b905092915050565b600080604083850312156120b1576120b06119f5565b5b60006120bf85828601611a20565b92505060206120d085828601611a20565b9150509250929050565b7f596f7520617265206e6f7420746865206f776e6572206f66207468697320706860008201527f6f6e650000000000000000000000000000000000000000000000000000000000602082015250565b6000612136602383611cbd565b9150612141826120da565b604082019050919050565b6000602082019050818103600083015261216581612129565b9050919050565b7f4e487b7100000000000000000000000000000000000000000000000000000000600052603260045260246000fd5b7f4e487b7100000000000000000000000000000000000000000000000000000000600052602260045260246000fd5b600060028204905060018216806121e257607f821691505b6020821081036121f5576121f461219b565b5b50919050565b60008190508160005260206000209050919050565b60006020601f8301049050919050565b600082821b905092915050565b60006008830261225d7fffffffffffffffffffffffffffffffffffffffffffffffffffffffffffffffff82612220565b6122678683612220565b95508019841693508086168417925050509392505050565b6000819050919050565b60006122a461229f61229a846119ff565b61227f565b6119ff565b9050919050565b6000819050919050565b6122be83612289565b6122d26122ca826122ab565b84845461222d565b825550505050565b600090565b6122e76122da565b6122f28184846122b5565b505050565b5b818110156123165761230b6000826122df565b6001810190506122f8565b5050565b601f82111561235b5761232c816121fb565b61233584612210565b81016020851015612344578190505b61235861235085612210565b8301826122f7565b50505b505050565b600082821c905092915050565b600061237e60001984600802612360565b1980831691505092915050565b6000612397838361236d565b9150826002028217905092915050565b6123b082611cb2565b67ffffffffffffffff8111156123c9576123c8611ad9565b5b6123d382546121ca565b6123de82828561231a565b600060209050601f83116001811461241157600084156123ff578287015190505b612409858261238b565b865550612471565b601f19841661241f866121fb565b60005b8281101561244757848901518255600182019150602085019450602081019050612422565b868310156124645784890151612460601f89168261236d565b8355505b6001600288020188555050505b505050505050565b7f50686f6e652077697468207468697320696420646f6573206e6f74206578697360008201527f7400000000000000000000000000000000000000000000000000000000000000602082015250565b60006124d5602183611cbd565b91506124e082612479565b604082019050919050565b60006020820190508181036000830152612504816124c8565b9050919050565b7f596f7520616c7265616479206f776e20746865206d6178696d756d206e756d6260008201527f6572206f662070686f6e65730000000000000000000000000000000000000000602082015250565b6000612567602c83611cbd565b91506125728261250b565b604082019050919050565b600060208201905081810360008301526125968161255a565b9050919050565b7f596f7520616c7265616479206f776e20746869732070686f6e65000000000000600082015250565b60006125d3601a83611cbd565b91506125de8261259d565b602082019050919050565b60006020820190508181036000830152612602816125c6565b9050919050565b7f4e487b7100000000000000000000000000000000000000000000000000000000600052601160045260246000fd5b6000612643826119ff565b91507fffffffffffffffffffffffffffffffffffffffffffffffffffffffffffffffff820361267557612674612609565b5b600182019050919050565b7f546869732070686f6e6520616c72656164792068617320616e206f776e657200600082015250565b60006126b6601f83611cbd565b91506126c182612680565b602082019050919050565b600060208201905081810360008301526126e5816126a9565b9050919050565b60006126f7826119ff565b9150612702836119ff565b925082820390508181111561271a57612719612609565b5b92915050565b600061272b826119ff565b9150612736836119ff565b9250828202612744816119ff565b9150828204841483151761275b5761275a612609565b5b5092915050565b600061276d826119ff565b9150612778836119ff565b92508282019050808211156127905761278f612609565b5b9291505056fea26469706673582212206a44e7504e15dedf8e1784a7560b6e56499e60e57db4c8e9ff1b9f49c9e7b22464736f6c63430008130033",
    "linkReferences": {},
    "deployedLinkReferences": {}
}